:10000000B9C000000C94CE090C94360A0C94F8097F
:10001000E1C000000C94700ADDC00000DBC00000ED
:10002000D9C00000D7C00000D5C00000D3C0000078
:10003000D1C00000CFC00000CDC0000022C200002F
:10004000C9C00000C7C00000C5C00000C3C0000098
:10005000C1C000000C949D09BDC00000BBC00000E1
:10006000B9C000000C94F60B0C94250CB3C0000032
:10007000B1C00000AFC00000ADC00000ABC00000C8
:10008000A9C00000A7C00000A5C00000A3C00000D8
:10009000A1C000009FC000009DC000009BC00000E8
:1000A00099C0000097C0000095C0000093C00000F8
:1000B00091C000008FC000008DC000008BC0000008
:1000C00089C0000087C0000085C000000C94530C5C
:1000D0000C94820C7FC000000C94B00C0C94DF0CCC
:1000E00079C000009604C10438054F054F054F053F
:1000F0004F054F054F054F054F054F054F054F0560
:100100004F054F054F054F054F054F054F054F054F
:100110004F054F054F054F054F054F054F054F053F
:100120004F054F054F054F054F054F054F054F052F
:100130004F054F054F054F054F054F054F054F051F
:100140004F054F054F054F054F054F054F054F050F
:100150004F0502054F05230593044F0532052C0575
:100160001F054F054F051D05EC044F054F054F05B5
:100170004805990A11241FBECFEFD1E2DEBFCDBFE3
:1001800000E00CBF12E0A0E0B2E0E6EFFEE100E02C
:100190000BBF02C007900D92A230B107D9F723E040
:1001A000A2E0B2E001C01D92A03CB207E1F710E06E
:1001B000CAEBD0E000E006C021970109802FFE01C4
:1001C0000E94710FC93BD10780E00807A9F7B9D297
:1001D0000C94790F15CFFC01168A178A108E118E98
:1001E000178E168E1182108211A210A213A212A2D3
:1001F000089585B5856085BD8BE987BDEEE6F0E0A5
:10020000808182608083A99A16BC0895E9E6F0E0B7
:10021000808182608083E89AE09A0895CF93DF938B
:10022000EC0150980898F2DFCE01E3DFDF91CF9127
:100230000895FC01009B1CC086899789A08DB18D13
:100240000197A109B109868B978BA08FB18F828D01
:10025000938DA48DB58D0197A109B109828F938FDC
:10026000A48FB58F868D978D0197978F868F089570
:1002700000991BC086899789A08DB18D0196A11D1B
:10028000B11D868B978BA08FB18F828D938DA48D9E
:10029000B58D0196A11DB11D828F938FA48FB58F4F
:1002A000868D978D0196978F868F0895CF93DF93D4
:1002B000EC016E8D7F8D072E000C880B990B0E9430
:1002C0005A0E21E830E840E85AE30E940E0F20E081
:1002D00030E044EB53E40E940E0F0E94270E798316
:1002E0006883CB01DF91CF910895CF92DF92EF9297
:1002F000FF920F931F93FC0102851385248535859A
:1003000006871787208B318BC680D780E084F184E5
:10031000C286D386E486F5864281538164817581E5
:10032000468357836087718786899789A08DB18DB1
:1003300082839383A483B583480F591F6A1F7B1F51
:10034000D701C601840F951FA61FB71F800F911FED
:10035000A21FB31FB595A79597958795B595A795B6
:1003600097958795828B938BA48BB58B168A178A6A
:10037000108E118E1F910F91FF90EF90DF90CF9014
:1003800008956C9809986C98749A0998119AEAE6FD
:10039000F0E0808182608083EC9AE49A0895FC0109
:1003A00011821082EECF0895CF93DF93EC01688124
:1003B0007981072E000C880B990B0E945A0E20E0C1
:1003C00030E044E353E40E94BF0D20E030E044EB12
:1003D00053E40E940E0F0E94270E7F836E83CB0191
:1003E000DF91CF910895249A279A259AE0E8F0E0CA
:1003F000808182688083E1E8F0E080818A61808387
:1004000089EF90E0909387008093860008952C9A5E
:100410002F9808952C982F9A08952C9A2F9A10921D
:1004200089001092880008950F931F93CF93DF9354
:100430008C01EB011C161D060CF4E9DFC93FD10548
:1004400044F4DD2344F4D195C195D109C801E2DF1C
:1004500002C0C9EFD0E0D0938900C0938800DF913B
:10046000CF911F910F910895CF93DF93EC01BBDFE4
:10047000CE01D3DF60E070E0CE01D6DFDF91CF9117
:1004800008951F920F920FB60F9211248F939F938E
:10049000AF93BF938091ED029091EE02A091EF0295
:1004A000B091F0020196A11DB11D8093ED029093D1
:1004B000EE02A093EF02B093F0028091E9029091D6
:1004C000EA02A091EB02B091EC020396A11DB11DCE
:1004D0008093E9029093EA02A093EB02B093EC02BE
:1004E0008091E9029091EA02A091EB02B091EC02B6
:1004F0008D379105A105B10538F18091E902909100
:10050000EA02A091EB02B091EC028D579109A1098A
:10051000B1098093E9029093EA02A093EB02B093B1
:10052000EC028091ED029091EE02A091EF02B09169
:10053000F0020196A11DB11D8093ED029093EE0291
:10054000A093EF02B093F002BF91AF919F918F9172
:100550000F900FBE0F901F9018952FB7F8946091D1
:10056000ED027091EE028091EF029091F0022FBFA8
:100570000895E1EBF0E0808184608083E0E7F0E0C3
:100580008081816080831092B200089581E0809321
:10059000DF0280ED92E09093490280934802089533
:1005A0005198599AE9E6F0E0808180628083EA9A66
:1005B000E29A089552985A9AE9E6F0E080818860BC
:1005C0008083E99AE19A0895EBDFF4DF84ED92E00D
:1005D0000E94FB0A80EB92E021DE85ED92E044DF91
:1005E00088EA92E0CECE0895CF93DF9378944A992B
:1005F00007C064EC7FEF84ED92E0DDD74A9BF9CF32
:10060000C0EBD2E01F8E1E8E84ED92E0C7D7109211
:100610001A02109219021A8E1B8E1C8E1D8EE9E78B
:10062000F2E016A615A68E8D9F8D9093780280938A
:1006300077021092000215A216A217A210A6158E1C
:10064000168E178E10A211A212A213A214A2DF916D
:10065000CF910895CF93DF9378944B9907C064ECC2
:100660007FEF84ED92E0A7D74B9BF9CFC0EBD2E0B0
:100670001F8E1E8E84ED92E091D710921A02109276
:1006800019021A8E1B8E1C8E1D8EE9E7F2E016A64B
:1006900015A610927802109277021092000215A20D
:1006A00016A217A210A611A212A213A214A2158EAE
:1006B000168E178E10A281E08093D8028091DA0204
:1006C000811110C08091D60281110CC081E080930D
:1006D000D60243DF609315027093160280931702CF
:1006E00090931802DF91CF91089581E08093E10209
:1006F0001092E3021092E2022DE230E030930F02FA
:1007000020930E028093E602809300028093E5021C
:1007100080911202909113029093A7028093A602F7
:1007200010921A02109219021092CA021092CB0271
:100730001092CC021092CD021092D902469A409AA1
:100740000895CF93DF93CDB7DEB761970FB6F894D6
:10075000DEBF0FBECDBFEAE0F1E080818160808323
:10076000EBE0F1E08081816080839A9AA298989A68
:10077000A0983E9A389A469A409A26DFFADE89E790
:1007800092E07ED7E9E7F2E00F2E412C512CF9E7F9
:100790006F2EF3EC7F2EF02D458A568A678A708E75
:1007A0000F2E812C912CF9E7AF2EF3E4BF2EF02D04
:1007B000818A928AA38AB48A0F2EF6E6CF2EDC2C89
:1007C000F6E0EF2EF1E4FF2EF02D0AEB19E42CEC0D
:1007D0003EE343E353E363E870E4CF0173D78AE475
:1007E00092E04ED70F2EFAE42F2EF2E03F2EF02D9E
:1007F000F101458A568A678A708E818A928AA38A15
:10080000B48A0F2EFBE1CF2EFFE2DF2EFBE0EF2EAE
:10081000F1E4FF2EF02D0AE017ED23EA3DE349E273
:100820005CE56FE570E4C1014DD78BE192E028D71C
:10083000EBE1F2E0458A568A678A708E818A928A55
:10084000A38AB48A0F2EC12CD12CF0E9EF2EF1E44B
:10085000FF2EF02D00E010E0980140E050E060ED48
:1008600071E4CF012FD7789489E190E00E940D0DBB
:100870008FE39CE90197F1F700C00000B5DE8FE03F
:1008800090E0F10196A785A784EC9FEF90930F026B
:1008900080930E0282EE9FEF9093130280931202D8
:1008A000FFEF29E638E1F15020403040E1F700C089
:1008B000000046984098412C512C32011F821B8227
:1008C0001D861A8618861A821986188A198A1E8227
:1008D0001C861F861B861E864FEF49831D821C8245
:1008E0000F2EF9E7AF2EF2E0BF2EF02D0F2EFBE119
:1008F0008F2EF2E09F2EF02D0F2EF6E02F2EF2E03D
:100900003F2EF02D0E94260D8093140290E0FC01F2
:10091000F197E734F10508F0C2C08827EE58FF4F81
:100920008F4F0C94710F81E08F83B9C091E0909349
:10093000E3021092E2021092E102E2ECFFEFF09388
:100940000F02E0930E029093E60290930002109241
:10095000DF029093E5028091120290911302F5015B
:1009600096A785A710921A02109219021092CA0235
:100970001092CB021092CC021092CD02469A409A6D
:100980008EC0F1E0F093E2021092E3021092E102D5
:100990001092DF0227EC3FEF30930F0220930E02FC
:1009A000F093E602F0930002F093E50280911202C8
:1009B00090911302F50196A785A710921A02109242
:1009C00019021092CA021092CB021092CC0210921D
:1009D000CD02469A409A63C01092E602F1E0F0938D
:1009E0000002F50116A615A684ED92E0D7D5109267
:1009F00013021092120210921A021092190210920F
:100A0000E5024DC00F2EFCE9CF2EF4ECDF2EFCEDFD
:100A1000EF2EF0E4FF2EF02D00E010E0980143E30C
:100A200053E363E271E48AE492E04CD6EBE0F1E058
:100A300080818E7F80830EDE32C0A8DD30C0F1E081
:100A4000F093DE022CC021E02093DB022093DD0234
:100A50001F8231E03B8323C0EBE0F1E080818160C5
:100A600080831DC0EBE0F1E080818E7F808317C022
:100A70002EE130E0309313022093120231E03093E4
:100A8000DA023093DD0241E04B8381E0898307C0C5
:100A90008091E402811103C091E09093E0021092F2
:100AA00014028091D6028823B9F057DD0091150217
:100AB000109116022091170230911802DC01CB012F
:100AC000801B910BA20BB30B8C3B9240A105B1058F
:100AD00018F0A29A1092D6028091DE02882301F1CA
:100AE000F985F1115AC32A8121111AC038853111B3
:100AF00017C04A85411114C08D85811111C0A2987B
:100B00002CDD2B013C0149C3A09A1092DE0280919A
:100B1000E00281110EC091E09A83E1E0E9876BC0A9
:100B20008091E002882309F466C0FA81FF2389F0EE
:100B300002C021E02987388531113FC34A85411120
:100B400021C08D85811121C0A29A07DD2B013C01B6
:100B500034C398859923F1F000DDDC01CB018419C1
:100B60009509A609B70984389340A105B10580F01D
:100B7000EBE0F1E0808181608083EFDC2B013C01C0
:100B800018860BC0F1E0FA8305C021E02A8302C079
:100B900031E038874A854423A1F0DFDCDC01CB015A
:100BA00084199509A609B709883C9105A105B105E5
:100BB00030F0A098D2DC2B013C011A8605C081E000
:100BC0008A879D859923B9F0C8DCDC01CB018419A3
:100BD0009509A609B70984369105A105B10548F024
:100BE000A2981092E0021D861A8618861A8219862B
:100BF00002C0E1E0ED8788EA92E0D6DB99231CF49D
:100C0000919581959109803D924094F085ED92E017
:100C100004DC1092A9021092A802F40116A615A6EF
:100C200011A212A213A214A2158E168E178E10A254
:100C3000FF81F111ABDC8091DB02882311F12B8164
:100C4000222321F0A3DC89DC2B013C018091DD0211
:100C50008823A1F082DCDC01CB0184199509A60967
:100C6000B70980329340A105B10550F0A2981092C7
:100C7000DD0241E04093D7021B8208C01B8201C005
:100C80001B828091D702882309F4A8C08E8181112C
:100C900014C09E85911114C0EB85E11125C0FC851F
:100CA000F11122C02F8521111FC0388931111CC0BC
:100CB0008091DC02811118C083C24E854423A1F0CB
:100CC0004CDCDC01CB0184199509A609B7098032F7
:100CD0009340A105B10530F0A09A3FDC2B013C0107
:100CE0001E8605C0F1E0FE872B852223A1F035DCAE
:100CF000DC01CB0184199509A609B709863991054C
:100D0000A105B10530F0A29A28DC2B013C011B861D
:100D100005C031E03B874E81442399F01EDCDC01A5
:100D2000CB0184199509A609B709C297A105B10598
:100D300030F02CDC12DC2B013C011E8205C081E06E
:100D40008E8398899923C1F008DCDC01CB018419DA
:100D50009509A609B70980329340A105B10550F065
:100D6000EBE0F1E0808181608083F7DB2B013C01C7
:100D7000188A05C0F1E0F88B2F852223A1F0EDDB66
:100D8000DC01CB0184199509A609B70986399105BB
:100D9000A105B10530F0A098E0DB2B013C011F86D6
:100DA00005C031E03F874C854423C1F0D6DBDC0130
:100DB000CB0184199509A609B7098C329140A10588
:100DC000B10550F0A298F1E0F093DC021092DB0242
:100DD0001092D7021C8602C021E02C878091DA0293
:100DE000882309F4E7C080911002909111028630A7
:100DF00091050CF0DFC02091DC02222341F0019626
:100E0000909311028093100270DC1092DC023EE19C
:100E100049814303C0011124209112023091130231
:100E20008217930709F0C6C08091D9028111DBC1F6
:100E3000C1C08E85811117C09B85911128C0EC859A
:100E4000E11125C0FF85F11122C0298921111FC0A0
:100E5000388931111CC081DB2B013C0104C04E8557
:100E6000442309F465C279DBDC01CB0184199509BF
:100E7000A609B709883C9105A105B10530F0A09AF3
:100E80006CDB2B013C011E8605C081E08E879B85B3
:100E90009923A1F062DBDC01CB0184199509A60935
:100EA000B70986399105A105B10530F0A29A55DB45
:100EB0002B013C011B8605C0E1E0EB87FE81FF238F
:100EC00099F04BDBDC01CB0184199509A609B70920
:100ED000C297A105B10530F059DB3FDB2B013C0186
:100EE0001E8205C021E02E8338893323C1F035DB13
:100EF000DC01CB0184199509A609B709803293401A
:100F0000A105B10550F0EBE0F1E0808181608083C4
:100F100024DB2B013C01188A05C0F1E0F88B2F85FA
:100F20002223A1F01ADBDC01CB0184199509A60963
:100F3000B70986399105A105B10530F0A0980DDB00
:100F40002B013C011F8605C031E03F874C854423BF
:100F5000A1F003DBDC01CB0184199509A609B709CF
:100F60008C329140A105B10530F0A298F6DA2B0140
:100F70003C011C8605C0F1E0FC8729892223D1F0C1
:100F8000ECDADC01CB0184199509A609B709883E82
:100F90009340A105B10560F080911002909111027B
:100FA000019690931102809310029FDB198A02C070
:100FB00041E0498B8091E502882309F442C0809189
:100FC000190290911A0205970CF411C13AC0E981F7
:100FD0008E2FEE0F990B9C01220F331F820F931F50
:100FE0002091120230911302820F931F90931302EB
:100FF000809312025D834C83409112025091130240
:10100000F50156A745A7F1E0F093000280910E028A
:1010100090910F029A01552324F422273327241B91
:10102000350BAC01992324F444275527481B590B51
:101030004217530734F490931302809312021092D4
:10104000E5028091E702882309F46BC080911902C0
:1010500090911A0208970CF0E2C063C02981822F98
:10106000220F990B9C01220F331F820F931F209197
:10107000120230911302281B390B30931302209374
:1010800012025D834C838091120290911302F5014C
:1010900096A785A7F1E0F093000280911902909144
:1010A0001A0208978CF08091E802882369F08091F9
:1010B000E302811104C08091E202882329F080912B
:1010C000E102882309F4C3C0209112023091130277
:1010D00049814203C001439F900D112409970CF5EB
:1010E0001092E6021092E70210921302109212027E
:1010F00081E08093E40210921A0210921902109279
:10110000CA021092CB021092CC021092CD02109221
:10111000E3021092E2021092E102469840981D828A
:101120001C82F5018081882321F0809100028111C9
:1011300093C080914A028823F9F0809100028111C6
:101140001BC09EC08091040290910502019690936D
:10115000050280930402C39734F40CC01092050278
:101160001092040207C01092050210920402F1E0EE
:10117000F093D90210924A02F4018081882321F071
:101180008091DF028111B4C08091E7028111BACB56
:101190008091E4028111BFC0B5CBDFD9DC01CB0166
:1011A00084199509A609B70980329340A105B105B4
:1011B00008F0AACC21E02987B3CC31E03A83CCCC2B
:1011C000CCD92B013C01C9D9DC01CB01841995098B
:1011D000A609B70980329340A105B10508F07CCD7E
:1011E00081E08E8798CD9E81911139CE22CE40919B
:1011F000CA025091CB026091CC027091CD029A014B
:10120000EC81FD812E1B3F0BC901992324F4882713
:101210009927821B930B88970CF0D9CEEDCE409185
:10122000CA025091CB026091CC027091CD029A011A
:101230008C819D81281B390BC901992324F48827AF
:101240009927821B930BC2970CF008CF1CCF87E61F
:1012500018D41092E80238CF6091C2027091C30294
:10126000072E000C880B990B25D5AB01BC01C501DD
:1012700043D2EDD484ED92E09ED1F501108259CF96
:1012800080EB92E013D8BC01990F880B990B12D513
:10129000AB01BC018AE492E02FD2D9D484ED92E074
:1012A0008AD1F1012481358137832683428153819C
:1012B0005583448360817181738362838091C60208
:1012C0009091C70299231CF4919581959109F101A0
:1012D00091838083860F971F480F591F240F351F56
:1012E0003093030220930202232B09F42BCF36CF35
:1012F00088EA92E059D8BC01990F880B990BDAD48F
:10130000AB01BC01C401F8D1A2D485ED92E08CD828
:10131000F401108239CF9ED92EE139813203C00108
:10132000112490931302809312021092E402EACAED
:101330004B85442309F4C5CDADCD1F920F920FB656
:101340000F9211240BB60F922F933F934F935F93FD
:101350006F937F938F939F93AF93BF93EF93FF937D
:1013600081E08093790280934A0280931B0280EB94
:1013700092E00E947501FF91EF91BF91AF919F9113
:101380008F917F916F915F914F913F912F910F902E
:101390000BBE0F900FBE0F901F9018951F920F92CB
:1013A0000FB60F9211240BB60F922F933F934F93CA
:1013B0005F936F937F938F939F93AF93BF93EF93BD
:1013C000FF9380EB92E00E941901FF91EF91BF9192
:1013D000AF919F918F917F916F915F914F913F91CD
:1013E0002F910F900BBE0F900FBE0F901F9018956E
:1013F00078941F920F920FB60F9211240BB60F9292
:101400008F939F93EF93FF931092CF021092CE028F
:101410008091E6028823F9F08091E302811110C0E7
:101420008091E20281110CC016C0EBE0F1E08081F6
:101430008E7F808381E08093E7028093E8020BC077
:101440008091190290911A02019690931A0280934A
:101450001902059751F3FF91EF919F918F910F9092
:101460000BBE0F900FBE0F901F90189578941F928F
:101470000F920FB60F9211240BB60F928F939F937A
:10148000EF93FF931092CF021092CE028091E6026A
:101490008823D9F08091E10281110CC016C0EBE0E5
:1014A000F1E080818E7F808381E08093E7028093EA
:1014B000E8020BC08091190290911A020196909354
:1014C0001A0280931902069751F3FF91EF919F91B1
:1014D0008F910F900BBE0F900FBE0F901F9018951D
:1014E0001F920F920FB60F9211240BB60F928F938B
:1014F0009F93EF93FF93019B08C0E8EAF2E080819D
:10150000918101969183808309C0019907C0E8EA1F
:10151000F2E080819181019791838083FF91EF9127
:101520009F918F910F900BBE0F900FBE0F901F9049
:10153000189580EB92E00E94EB0088EA92E00C9410
:10154000CF010895E1E0F1E08081806280838081B5
:1015500080648083269AE0E8F0E080818262808364
:10156000E1E8F0E080818A61808389EF90E09093E8
:101570008700809386000895E2E0F1E08081806238
:10158000808380818F7B80830895E2E0F1E0808119
:101590008F7D80838081806480830895E2E0F1E024
:1015A00080818062808380818064808310928B0040
:1015B00010928A0008950F931F93CF93DF938C01AD
:1015C000EB011C161D060CF4D7DFC93FD10544F40E
:1015D000DD2344F4D195C195D109C801D6DF02C0FD
:1015E000C9EFD0E0D0938B00C0938A00DF91CF91F8
:1015F0001F910F910895CF93DF93EC01A3DFCE01EC
:10160000CDDF60E070E0CE01D6DFDF91CF910895AD
:101610008F929F92AF92BF92CF92DF92EF92FF9202
:101620000F931F93CF93DF93EC014A015B01680195
:1016300079019A01AB01688179818A819B819BD272
:10164000882324F488829982AA82BB82A70196010A
:10165000688179818A819B81DDD3181624F4C88240
:10166000D982EA82FB82DF91CF911F910F91FF9087
:10167000EF90DF90CF90BF90AF909F908F900895A4
:10168000FC01118212821382148215821682178243
:1016900010861186128613861486118E128E138E72
:1016A000148E158616861786108A15A216A217A202
:1016B00010A611A612A613A614A616A615A681E0BA
:1016C00080830895CF92DF92EF92FF920F931F9342
:1016D000FC014183528363837483058316832783CC
:1016E0003087C186D286E386F4861F910F91FF90E2
:1016F000EF90DF90CF9008954F925F926F927F921C
:101700008F929F92AF92BF92CF92DF92EF92FF9211
:101710000F931F93CF93DF93EC016A017B016DA5BB
:101720007EA5072E000C880B990BC4D2A701960149
:10173000BDD14B015C01698F7A8F8B8F9C8F2D817E
:101740003E814F8158856AD329A13AA14BA15CA162
:10175000AED12B013C0169A37AA38BA39CA3298161
:101760003A814B815C81C501B40158D39B01AC0126
:10177000C301B2019CD14B015C012DA13EA14FA13F
:1017800058A5C701B60192D129853A854B855C855C
:1017900045D39B01AC01C501B40188D16D8F7E8F0B
:1017A0008F8F98A309891A892B893C894D895E8975
:1017B0006F89788DCE014D962BDFCDA2DEA2EFA2F0
:1017C000F8A66D8D7E8D8F8D98A1DF91CF911F91A1
:1017D0000F91FF90EF90DF90CF90BF90AF909F90D0
:1017E0008F907F906F905F904F9008951F920F920F
:1017F0000FB60F9211240BB60F922F938F939F93D6
:10180000EF93FF938091C0002091C6008871E09112
:101810007D03EF5FEF7190917C03E91739F0E0935E
:101820007D03F0E0E058FC4F208301C082E080930C
:101830007B03FF91EF919F918F912F910F900BBEA2
:101840000F900FBE0F901F9018951F920F920FB61A
:101850000F9211240BB60F928F939F93EF93FF93E8
:1018600090917F0380917E03981769F0E0917E0349
:10187000EF5FEF71E0937E03F0E0E056FC4F808174
:101880008093C60005C0E1ECF0E080818F7D80830D
:10189000FF91EF919F918F910F900BBE0F900FBE14
:1018A0000F901F9018951F920F920FB60F92112450
:1018B0000BB60F922F938F939F93EF93FF9380918B
:1018C000D0002091D6008871E0913803EF5FEF716E
:1018D00090913703E91739F0E0933803F0E0E55CC5
:1018E000FC4F208301C082E080933603FF91EF918B
:1018F0009F918F912F910F900BBE0F900FBE0F9065
:101900001F9018951F920F920FB60F9211240BB6CD
:101910000F928F939F93EF93FF9390913A0380914F
:101920003903981769F0E0913903EF5FEF71E093A5
:101930003903F0E0E55AFC4F80818093D60005C062
:10194000E1EDF0E080818F7D8083FF91EF919F91A9
:101950008F910F900BBE0F900FBE0F901F90189598
:101960001F920F920FB60F9211240BB60F922F9366
:101970008F939F93EF93FF938091300120913601D5
:101980008871E091F302EF5FEF719091F202E91735
:1019900039F0E093F302F0E0EA50FD4F208301C0FC
:1019A00082E08093F102FF91EF919F918F912F91AF
:1019B0000F900BBE0F900FBE0F901F9018951F92A7
:1019C0000F920FB60F9211240BB60F928F939F9325
:1019D000EF93FF939091F5028091F402981769F0CC
:1019E000E091F402EF5FEF71E093F402F0E0EA5E61
:1019F000FC4F80818093360105C0E1E3F1E08081F6
:101A00008F7D8083FF91EF919F918F910F900BBEFF
:101A10000F900FBE0F901F9018951092F502109224
:101A2000F4021092F3021092F202992324F426E0B9
:101A3000209330019F77909335018093340188E99A
:101A40008093310186E08093320108959091F302F2
:101A50008091F202981791F0E091F202EF5FEF713E
:101A6000E093F202F0E0EA50FD4F20818091F10214
:101A700090E0982F8827820F911D089580E091E0D3
:101A800008952091F5022F5F2F719091F40229178C
:101A9000E1F3E22FF0E0EA5EFC4F80832093F50251
:101AA000E1E3F1E080818062808308955058BB2794
:101AB000AA270ED075C166D130F06BD120F031F479
:101AC0009F3F11F41EF45BC10EF4E095E7FB51C19A
:101AD000E92F77D180F3BA17620773078407950758
:101AE00018F071F49EF58FC10EF4E0950B2EBA2F0D
:101AF000A02D0B01B90190010C01CA01A001112414
:101B0000FF27591B99F0593F50F4503E68F11A16BF
:101B1000F040A22F232F342F4427585FF3CF469550
:101B200037952795A795F0405395C9F77EF41F1672
:101B3000BA0B620B730B840BBAF09150A1F0FF0F3C
:101B4000BB1F661F771F881FC2F70EC0BA0F621F28
:101B5000731F841F48F4879577956795B795F79518
:101B60009E3F08F0B3CF9395880F08F09927EE0FAA
:101B7000979587950895D9D008F481E008950CD001
:101B80000FC107D140F0FED030F021F45F3F19F0D3
:101B9000F0C0511139C1F3C014D198F39923C9F39E
:101BA0005523B1F3951B550BBB27AA276217730763
:101BB000840738F09F5F5F4F220F331F441FAA1F17
:101BC000A9F333D00E2E3AF0E0E830D091505040D7
:101BD000E695001CCAF729D0FE2F27D0660F771F85
:101BE000881FBB1F261737074807AB07B0E809F067
:101BF000BB0B802DBF01FF2793585F4F2AF09E3FFC
:101C0000510568F0B6C000C15F3FECF3983EDCF3CD
:101C1000869577956795B795F7959F5FC9F7880F74
:101C2000911D9695879597F90895E1E0660F771FC6
:101C3000881FBB1F621773078407BA0720F0621B57
:101C4000730B840BBA0BEE1F88F7E095089504D050
:101C50006894B111D9C00895BCD088F09F5790F016
:101C6000B92F9927B751A0F0D1F0660F771F881FC1
:101C7000991F1AF0BA95C9F712C0B13081F0C3D0DC
:101C8000B1E00895C0C0672F782F8827B85F39F07A
:101C9000B93FCCF3869577956795B395D9F73EF420
:101CA00090958095709561957F4F8F4F9F4F0895C8
:101CB000E89409C097FB3EF49095809570956195E6
:101CC0007F4F8F4F9F4F9923A9F0F92F96E9BB279C
:101CD0009395F695879577956795B795F111F8CF18
:101CE000FAF4BB0F11F460FF1BC06F5F7F4F8F4F83
:101CF0009F4F16C0882311F096E911C0772321F079
:101D00009EE8872F762F05C0662371F096E8862F10
:101D100070E060E02AF09A95660F771F881FDAF767
:101D2000880F9695879597F90895990F0008550F94
:101D3000AA0BE0E8FEEF16161706E807F907C0F051
:101D400012161306E407F50798F0621B730B840B59
:101D5000950B39F40A2661F0232B242B252B21F433
:101D600008950A2609F4A140A6958FEF811D811DD3
:101D7000089597F99F6780E870E060E008959FEF0D
:101D800080EC089500240A94161617061806090612
:101D9000089500240A9412161306140605060895E1
:101DA000092E0394000C11F4882352F0BB0F40F469
:101DB000BF2B11F460FF04C06F5F7F4F8F4F9F4FA9
:101DC000089557FD9058440F551F59F05F3F71F02B
:101DD0004795880F97FB991F61F09F3F79F0879592
:101DE0000895121613061406551FF2CF4695F1DF1B
:101DF00008C0161617061806991FF1CF86957105AB
:101E0000610508940895E894BB2766277727CB01DE
:101E100097F908958ADF08F48FEF08950BD0C0CFAB
:101E2000B1DF28F0B6DF18F0952309F0A2CFA7CFD5
:101E30001124EACFC6DFA0F3959FD1F3950F50E0B0
:101E4000551F629FF001729FBB27F00DB11D639F6C
:101E5000AA27F00DB11DAA1F649F6627B00DA11D12
:101E6000661F829F2227B00DA11D621F739FB00DB8
:101E7000A11D621F839FA00D611D221F749F332728
:101E8000A00D611D231F849F600D211D822F762FC1
:101E90006A2F11249F5750408AF0E1F088234AF0BE
:101EA000EE0FFF1FBB1F661F771F881F915050400A
:101EB000A9F79E3F510570F05CCFA6CF5F3FECF3D2
:101EC000983EDCF3869577956795B795F795E795F6
:101ED0009F5FC1F7FE2B880F911D9695879597F907
:101EE0000895EE0FFF1F881F8BBF0790F691E02D1E
:061EF0001994F894FFCFE5
:021EF6000100E9
:00000001FF
